{
    "contractName": "Bank",
    "abi": [
        {
            "constant": true,
            "inputs": [],
            "name": "getBalance",
            "outputs": [
                {
                    "internalType": "uint256",
                    "name": "_amount",
                    "type": "uint256"
                }
            ],
            "payable": false,
            "stateMutability": "view",
            "type": "function"
        },
        {
            "constant": false,
            "inputs": [
                {
                    "internalType": "uint256",
                    "name": "_bal",
                    "type": "uint256"
                }
            ],
            "name": "deposit",
            "outputs": [],
            "payable": false,
            "stateMutability": "nonpayable",
            "type": "function"
        },
        {
            "inputs": [],
            "payable": false,
            "stateMutability": "nonpayable",
            "type": "constructor"
        }
    ],
    "bytecode": "608060405234801561001057600080fd5b5062015f9060005560b1806100266000396000f3fe6080604052348015600f57600080fd5b506004361060325760003560e01c806312065fe0146037578063b6b55f2514604f575b600080fd5b603d606b565b60408051918252519081900360200190f35b606960048036036020811015606357600080fd5b50356071565b005b60005490565b60008054909101905556fea265627a7a723158201752274ce49aae8425b0cd600d41e0e67e1fa8153e63dfd387f0a458a405f4c364736f6c634300050b0032",
    "sourcePath": "/home/godlove/Desktop/Frontended/contracts/bank.sol",
    "compiler": {
        "name": "solc",
        "version": "0.5.11+commit.c082d0b4"
    },
    "functionHashes": {
        "deposit(uint256)": "b6b55f25",
        "getBalance()": "12065fe0"
    },
    "gasEstimates": {
        "creation": {
            "codeDepositCost": "35400",
            "executionCost": "20093",
            "totalCost": "55493"
        },
        "external": {
            "deposit(uint256)": "20404",
            "getBalance()": "376"
        }
    }
}